{
  "address": "0x5FbDB2315678afecb367f032d93F642f64180aa3",
  "abi": [
    {
      "inputs": [
        {
          "internalType": "uint256",
          "name": "_eventCreationFee",
          "type": "uint256"
        },
        {
          "internalType": "uint256",
          "name": "_ticketBuyingFee",
          "type": "uint256"
        }
      ],
      "stateMutability": "nonpayable",
      "type": "constructor"
    },
    {
      "inputs": [],
      "name": "AllTicketsSold",
      "type": "error"
    },
    {
      "inputs": [],
      "name": "AlreadyHaveBoughtTicket",
      "type": "error"
    },
    {
      "inputs": [],
      "name": "AmountFundedNotMatching",
      "type": "error"
    },
    {
      "inputs": [],
      "name": "EventCreationFeeNotMatching",
      "type": "error"
    },
    {
      "inputs": [],
      "name": "EventStillActive",
      "type": "error"
    },
    {
      "inputs": [],
      "name": "NoFundsToWithdraw",
      "type": "error"
    },
    {
      "inputs": [],
      "name": "NonExistingEvent",
      "type": "error"
    },
    {
      "inputs": [],
      "name": "NotContractOwner",
      "type": "error"
    },
    {
      "inputs": [],
      "name": "NotCreatorOfTheEvent",
      "type": "error"
    },
    {
      "inputs": [],
      "name": "NotEventCreator",
      "type": "error"
    },
    {
      "anonymous": false,
      "inputs": [
        {
          "indexed": true,
          "internalType": "uint256",
          "name": "index",
          "type": "uint256"
        },
        {
          "indexed": true,
          "internalType": "string",
          "name": "name",
          "type": "string"
        }
      ],
      "name": "EventCreated",
      "type": "event"
    },
    {
      "anonymous": false,
      "inputs": [
        {
          "indexed": true,
          "internalType": "uint256",
          "name": "index",
          "type": "uint256"
        },
        {
          "indexed": true,
          "internalType": "string",
          "name": "name",
          "type": "string"
        }
      ],
      "name": "EventFinished",
      "type": "event"
    },
    {
      "anonymous": false,
      "inputs": [
        {
          "indexed": true,
          "internalType": "uint256",
          "name": "index",
          "type": "uint256"
        },
        {
          "indexed": true,
          "internalType": "address",
          "name": "creator",
          "type": "address"
        }
      ],
      "name": "EventFundWithdraw",
      "type": "event"
    },
    {
      "anonymous": false,
      "inputs": [
        {
          "indexed": true,
          "internalType": "uint256",
          "name": "events",
          "type": "uint256"
        },
        {
          "indexed": true,
          "internalType": "uint256",
          "name": "tickets",
          "type": "uint256"
        }
      ],
      "name": "OwnerWithdraw",
      "type": "event"
    },
    {
      "anonymous": false,
      "inputs": [
        {
          "indexed": true,
          "internalType": "uint256",
          "name": "index",
          "type": "uint256"
        },
        {
          "indexed": true,
          "internalType": "string",
          "name": "name",
          "type": "string"
        },
        {
          "indexed": true,
          "internalType": "address",
          "name": "buyer",
          "type": "address"
        }
      ],
      "name": "TicketBought",
      "type": "event"
    },
    {
      "inputs": [
        {
          "internalType": "uint256",
          "name": "_index",
          "type": "uint256"
        }
      ],
      "name": "buyTicket",
      "outputs": [],
      "stateMutability": "payable",
      "type": "function"
    },
    {
      "inputs": [
        {
          "internalType": "uint256",
          "name": "_index",
          "type": "uint256"
        },
        {
          "internalType": "address",
          "name": "_assistant",
          "type": "address"
        }
      ],
      "name": "checkAssistant",
      "outputs": [
        {
          "internalType": "bool",
          "name": "",
          "type": "bool"
        }
      ],
      "stateMutability": "view",
      "type": "function"
    },
    {
      "inputs": [
        {
          "internalType": "string",
          "name": "_name",
          "type": "string"
        },
        {
          "internalType": "uint256",
          "name": "_totalTicketAmount",
          "type": "uint256"
        },
        {
          "internalType": "uint256",
          "name": "_ticketPrice",
          "type": "uint256"
        }
      ],
      "name": "createEvent",
      "outputs": [],
      "stateMutability": "payable",
      "type": "function"
    },
    {
      "inputs": [
        {
          "internalType": "uint256",
          "name": "_index",
          "type": "uint256"
        }
      ],
      "name": "finishEvent",
      "outputs": [],
      "stateMutability": "nonpayable",
      "type": "function"
    },
    {
      "inputs": [],
      "name": "i_eventCreationFee",
      "outputs": [
        {
          "internalType": "uint256",
          "name": "",
          "type": "uint256"
        }
      ],
      "stateMutability": "view",
      "type": "function"
    },
    {
      "inputs": [],
      "name": "i_ticketBuyingFee",
      "outputs": [
        {
          "internalType": "uint256",
          "name": "",
          "type": "uint256"
        }
      ],
      "stateMutability": "view",
      "type": "function"
    },
    {
      "inputs": [
        {
          "internalType": "uint256",
          "name": "",
          "type": "uint256"
        }
      ],
      "name": "s_events",
      "outputs": [
        {
          "internalType": "address",
          "name": "creator",
          "type": "address"
        },
        {
          "internalType": "string",
          "name": "name",
          "type": "string"
        },
        {
          "internalType": "uint256",
          "name": "totalTicketAmount",
          "type": "uint256"
        },
        {
          "internalType": "uint256",
          "name": "ticketsSold",
          "type": "uint256"
        },
        {
          "internalType": "uint256",
          "name": "ticketPrice",
          "type": "uint256"
        },
        {
          "internalType": "bool",
          "name": "active",
          "type": "bool"
        }
      ],
      "stateMutability": "view",
      "type": "function"
    },
    {
      "inputs": [],
      "name": "s_eventsCreated",
      "outputs": [
        {
          "internalType": "uint256",
          "name": "",
          "type": "uint256"
        }
      ],
      "stateMutability": "view",
      "type": "function"
    },
    {
      "inputs": [],
      "name": "s_ticketsBought",
      "outputs": [
        {
          "internalType": "uint256",
          "name": "",
          "type": "uint256"
        }
      ],
      "stateMutability": "view",
      "type": "function"
    },
    {
      "inputs": [
        {
          "internalType": "uint256",
          "name": "_index",
          "type": "uint256"
        }
      ],
      "name": "withdrawEventFunds",
      "outputs": [],
      "stateMutability": "nonpayable",
      "type": "function"
    },
    {
      "inputs": [],
      "name": "withdrawOwnerFunds",
      "outputs": [],
      "stateMutability": "nonpayable",
      "type": "function"
    }
  ],
  "transactionHash": "0x90a2a7e9875fcd9d1f020fcc9cebdfcb8c013de7b9ddb7a3dd9e8da88910ccb9",
  "args": [
    "1000000000000000000",
    "100000000000000000"
  ],
  "numDeployments": 1,
  "solcInputHash": "6353fc48ff40f1085624315f60d188f4",
  "bytecode": "0x60e060405260008055600060015560006002553480156200001f57600080fd5b5060405162001902380380620019028339818101604052810190620000459190620000d1565b3373ffffffffffffffffffffffffffffffffffffffff1660808173ffffffffffffffffffffffffffffffffffffffff16815250508160a081815250508060c08181525050505062000118565b600080fd5b6000819050919050565b620000ab8162000096565b8114620000b757600080fd5b50565b600081519050620000cb81620000a0565b92915050565b60008060408385031215620000eb57620000ea62000091565b5b6000620000fb85828601620000ba565b92505060206200010e85828601620000ba565b9150509250929050565b60805160a05160c0516117906200017260003960008181610684015281816108900152610cf501526000818161026f015281816108be0152610afe01526000818161041d0152818161080901526108fa01526117906000f3fe60806040526004361061009c5760003560e01c80639ddbe974116100645780639ddbe974146101515780639e9580f61461017c578063d11abbe614610198578063d5a57764146101d5578063d775e85c14610200578063f4b0ec951461022b5761009c565b80633ddbaed1146100a157806347343065146100cc57806367dd74ca146100f55780637d9b97e014610111578063982fb7b814610128575b600080fd5b3480156100ad57600080fd5b506100b661026d565b6040516100c39190610e21565b60405180910390f35b3480156100d857600080fd5b506100f360048036038101906100ee9190610e7c565b610291565b005b61010f600480360381019061010a9190610e7c565b610514565b005b34801561011d57600080fd5b50610126610807565b005b34801561013457600080fd5b5061014f600480360381019061014a9190610e7c565b6109d1565b005b34801561015d57600080fd5b50610166610af6565b6040516101739190610e21565b60405180910390f35b61019660048036038101906101919190610fef565b610afc565b005b3480156101a457600080fd5b506101bf60048036038101906101ba91906110bc565b610c82565b6040516101cc9190611117565b60405180910390f35b3480156101e157600080fd5b506101ea610ced565b6040516101f79190610e21565b60405180910390f35b34801561020c57600080fd5b50610215610cf3565b6040516102229190610e21565b60405180910390f35b34801561023757600080fd5b50610252600480360381019061024d9190610e7c565b610d17565b604051610264969594939291906111c0565b60405180910390f35b7f000000000000000000000000000000000000000000000000000000000000000081565b6003600082815260200190815260200160002060000160009054906101000a900473ffffffffffffffffffffffffffffffffffffffff1673ffffffffffffffffffffffffffffffffffffffff163373ffffffffffffffffffffffffffffffffffffffff161461032c576040517f76dacb4000000000000000000000000000000000000000000000000000000000815260040160405180910390fd5b600115156003600083815260200190815260200160002060060160009054906101000a900460ff1615150361038d576040517f9e1ef21b00000000000000000000000000000000000000000000000000000000815260040160405180910390fd5b60006003600083815260200190815260200160002060030154036103dd576040517f67e3990d00000000000000000000000000000000000000000000000000000000815260040160405180910390fd5b6000600360008381526020019081526020016000206004015460036000848152602001908152602001600020600301546104179190611257565b905060007f000000000000000000000000000000000000000000000000000000000000000073ffffffffffffffffffffffffffffffffffffffff168260405161045f906112ca565b60006040518083038185875af1925050503d806000811461049c576040519150601f19603f3d011682016040523d82523d6000602084013e6104a1565b606091505b50509050806104af57600080fd5b600060036000858152602001908152602001600020600301819055503373ffffffffffffffffffffffffffffffffffffffff16837fa738fbd8b13fb5a3c35069bf23d3235998202cc516b2ff9f320e971387dbc46560405160405180910390a3505050565b6003600082815260200190815260200160002060060160009054906101000a900460ff1661056e576040517f077655f700000000000000000000000000000000000000000000000000000000815260040160405180910390fd5b6003600082815260200190815260200160002060050160003373ffffffffffffffffffffffffffffffffffffffff1673ffffffffffffffffffffffffffffffffffffffff16815260200190815260200160002060009054906101000a900460ff1615610606576040517fe8b6309400000000000000000000000000000000000000000000000000000000815260040160405180910390fd5b600360008281526020019081526020016000206003015460036000838152602001908152602001600020600201541161066b576040517fe48e5abe00000000000000000000000000000000000000000000000000000000815260040160405180910390fd5b60036000828152602001908152602001600020600401547f00000000000000000000000000000000000000000000000000000000000000006106ad91906112df565b34146106e5576040517f3b0c5b0900000000000000000000000000000000000000000000000000000000815260040160405180910390fd5b60036000828152602001908152602001600020600301600081548092919061070c90611313565b919050555060016003600083815260200190815260200160002060050160003373ffffffffffffffffffffffffffffffffffffffff1673ffffffffffffffffffffffffffffffffffffffff16815260200190815260200160002060006101000a81548160ff0219169083151502179055506001600081548092919061079090611313565b91905055503373ffffffffffffffffffffffffffffffffffffffff16600360008381526020019081526020016000206001016040516107cf919061145e565b6040518091039020827f19ce0c85fd420c001d984e0672f20791eb287a3a26c25a59d35d2c7831f20eae60405160405180910390a450565b7f000000000000000000000000000000000000000000000000000000000000000073ffffffffffffffffffffffffffffffffffffffff163373ffffffffffffffffffffffffffffffffffffffff161461088c576040517fbfcafd3700000000000000000000000000000000000000000000000000000000815260040160405180910390fd5b60007f00000000000000000000000000000000000000000000000000000000000000006001546108bc9190611257565b7f00000000000000000000000000000000000000000000000000000000000000006000546108ea9190611257565b6108f491906112df565b905060007f000000000000000000000000000000000000000000000000000000000000000073ffffffffffffffffffffffffffffffffffffffff168260405161093c906112ca565b60006040518083038185875af1925050503d8060008114610979576040519150601f19603f3d011682016040523d82523d6000602084013e61097e565b606091505b505090508061098c57600080fd5b6001546000547fd9ab1124cc5ae2fc882b0b29ca32f77e01293d74545e684765bf681bcd0b526160405160405180910390a36000808190555060006001819055505050565b3373ffffffffffffffffffffffffffffffffffffffff166003600083815260200190815260200160002060000160009054906101000a900473ffffffffffffffffffffffffffffffffffffffff1673ffffffffffffffffffffffffffffffffffffffff1614610a6c576040517f779dbe6500000000000000000000000000000000000000000000000000000000815260040160405180910390fd5b60006003600083815260200190815260200160002060060160006101000a81548160ff02191690831515021790555060036000828152602001908152602001600020600101604051610abe919061145e565b6040518091039020817f64b78fcbf22b8e916c2b0fd3f03e8cd61f0f3ad3546bb9cdf62903361d1687c660405160405180910390a350565b60015481565b7f00000000000000000000000000000000000000000000000000000000000000003414610b55576040517fc341904200000000000000000000000000000000000000000000000000000000815260040160405180910390fd5b6000600360006002548152602001908152602001600020905060026000815480929190610b8190611313565b9190505550338160000160006101000a81548173ffffffffffffffffffffffffffffffffffffffff021916908373ffffffffffffffffffffffffffffffffffffffff16021790555083816001019081610bda919061160c565b508281600201819055506000816003018190555081816004018190555060018160060160006101000a81548160ff021916908315150217905550600080815480929190610c2690611313565b919050555083604051610c39919061170f565b60405180910390206001600254610c509190611726565b7f9ce3d6db707bca4ba0eabed8fba1e2c013a1c0bc1132a764170a7854d198c73d60405160405180910390a350505050565b60006003600084815260200190815260200160002060050160008373ffffffffffffffffffffffffffffffffffffffff1673ffffffffffffffffffffffffffffffffffffffff16815260200190815260200160002060009054906101000a900460ff16905092915050565b60005481565b7f000000000000000000000000000000000000000000000000000000000000000081565b60036020528060005260406000206000915090508060000160009054906101000a900473ffffffffffffffffffffffffffffffffffffffff1690806001018054610d609061138a565b80601f0160208091040260200160405190810160405280929190818152602001828054610d8c9061138a565b8015610dd95780601f10610dae57610100808354040283529160200191610dd9565b820191906000526020600020905b815481529060010190602001808311610dbc57829003601f168201915b5050505050908060020154908060030154908060040154908060060160009054906101000a900460ff16905086565b6000819050919050565b610e1b81610e08565b82525050565b6000602082019050610e366000830184610e12565b92915050565b6000604051905090565b600080fd5b600080fd5b610e5981610e08565b8114610e6457600080fd5b50565b600081359050610e7681610e50565b92915050565b600060208284031215610e9257610e91610e46565b5b6000610ea084828501610e67565b91505092915050565b600080fd5b600080fd5b6000601f19601f8301169050919050565b7f4e487b7100000000000000000000000000000000000000000000000000000000600052604160045260246000fd5b610efc82610eb3565b810181811067ffffffffffffffff82111715610f1b57610f1a610ec4565b5b80604052505050565b6000610f2e610e3c565b9050610f3a8282610ef3565b919050565b600067ffffffffffffffff821115610f5a57610f59610ec4565b5b610f6382610eb3565b9050602081019050919050565b82818337600083830152505050565b6000610f92610f8d84610f3f565b610f24565b905082815260208101848484011115610fae57610fad610eae565b5b610fb9848285610f70565b509392505050565b600082601f830112610fd657610fd5610ea9565b5b8135610fe6848260208601610f7f565b91505092915050565b60008060006060848603121561100857611007610e46565b5b600084013567ffffffffffffffff81111561102657611025610e4b565b5b61103286828701610fc1565b935050602061104386828701610e67565b925050604061105486828701610e67565b9150509250925092565b600073ffffffffffffffffffffffffffffffffffffffff82169050919050565b60006110898261105e565b9050919050565b6110998161107e565b81146110a457600080fd5b50565b6000813590506110b681611090565b92915050565b600080604083850312156110d3576110d2610e46565b5b60006110e185828601610e67565b92505060206110f2858286016110a7565b9150509250929050565b60008115159050919050565b611111816110fc565b82525050565b600060208201905061112c6000830184611108565b92915050565b61113b8161107e565b82525050565b600081519050919050565b600082825260208201905092915050565b60005b8381101561117b578082015181840152602081019050611160565b60008484015250505050565b600061119282611141565b61119c818561114c565b93506111ac81856020860161115d565b6111b581610eb3565b840191505092915050565b600060c0820190506111d56000830189611132565b81810360208301526111e78188611187565b90506111f66040830187610e12565b6112036060830186610e12565b6112106080830185610e12565b61121d60a0830184611108565b979650505050505050565b7f4e487b7100000000000000000000000000000000000000000000000000000000600052601160045260246000fd5b600061126282610e08565b915061126d83610e08565b925082820261127b81610e08565b9150828204841483151761129257611291611228565b5b5092915050565b600081905092915050565b50565b60006112b4600083611299565b91506112bf826112a4565b600082019050919050565b60006112d5826112a7565b9150819050919050565b60006112ea82610e08565b91506112f583610e08565b925082820190508082111561130d5761130c611228565b5b92915050565b600061131e82610e08565b91507fffffffffffffffffffffffffffffffffffffffffffffffffffffffffffffffff82036113505761134f611228565b5b600182019050919050565b7f4e487b7100000000000000000000000000000000000000000000000000000000600052602260045260246000fd5b600060028204905060018216806113a257607f821691505b6020821081036113b5576113b461135b565b5b50919050565b600081905092915050565b60008190508160005260206000209050919050565b600081546113e88161138a565b6113f281866113bb565b9450600182166000811461140d576001811461142257611455565b60ff1983168652811515820286019350611455565b61142b856113c6565b60005b8381101561144d5781548189015260018201915060208101905061142e565b838801955050505b50505092915050565b600061146a82846113db565b915081905092915050565b60006020601f8301049050919050565b600082821b905092915050565b6000600883026114c27fffffffffffffffffffffffffffffffffffffffffffffffffffffffffffffffff82611485565b6114cc8683611485565b95508019841693508086168417925050509392505050565b6000819050919050565b60006115096115046114ff84610e08565b6114e4565b610e08565b9050919050565b6000819050919050565b611523836114ee565b61153761152f82611510565b848454611492565b825550505050565b600090565b61154c61153f565b61155781848461151a565b505050565b5b8181101561157b57611570600082611544565b60018101905061155d565b5050565b601f8211156115c057611591816113c6565b61159a84611475565b810160208510156115a9578190505b6115bd6115b585611475565b83018261155c565b50505b505050565b600082821c905092915050565b60006115e3600019846008026115c5565b1980831691505092915050565b60006115fc83836115d2565b9150826002028217905092915050565b61161582611141565b67ffffffffffffffff81111561162e5761162d610ec4565b5b611638825461138a565b61164382828561157f565b600060209050601f8311600181146116765760008415611664578287015190505b61166e85826115f0565b8655506116d6565b601f198416611684866113c6565b60005b828110156116ac57848901518255600182019150602085019450602081019050611687565b868310156116c957848901516116c5601f8916826115d2565b8355505b6001600288020188555050505b505050505050565b60006116e982611141565b6116f381856113bb565b935061170381856020860161115d565b80840191505092915050565b600061171b82846116de565b915081905092915050565b600061173182610e08565b915061173c83610e08565b925082820390508181111561175457611753611228565b5b9291505056fea264697066735822122058bca3e6013635348bf31e37798c46ac8088751f957aeb0900a72e87b56db30964736f6c63430008120033",
  "devdoc": {
    "kind": "dev",
    "methods": {},
    "version": 1
  },
  "userdoc": {
    "kind": "user",
    "methods": {},
    "version": 1
  },
  "storageLayout": {
    "storage": [
      {
        "astId": 62,
        "contract": "contracts/TicketSeller.sol:TicketDistributor",
        "label": "s_eventsCreated",
        "offset": 0,
        "slot": "0",
        "type": "t_uint256"
      },
      {
        "astId": 65,
        "contract": "contracts/TicketSeller.sol:TicketDistributor",
        "label": "s_ticketsBought",
        "offset": 0,
        "slot": "1",
        "type": "t_uint256"
      },
      {
        "astId": 68,
        "contract": "contracts/TicketSeller.sol:TicketDistributor",
        "label": "s_index",
        "offset": 0,
        "slot": "2",
        "type": "t_uint256"
      },
      {
        "astId": 73,
        "contract": "contracts/TicketSeller.sol:TicketDistributor",
        "label": "s_events",
        "offset": 0,
        "slot": "3",
        "type": "t_mapping(t_uint256,t_struct(Event)90_storage)"
      }
    ],
    "types": {
      "t_address": {
        "encoding": "inplace",
        "label": "address",
        "numberOfBytes": "20"
      },
      "t_bool": {
        "encoding": "inplace",
        "label": "bool",
        "numberOfBytes": "1"
      },
      "t_mapping(t_address,t_bool)": {
        "encoding": "mapping",
        "key": "t_address",
        "label": "mapping(address => bool)",
        "numberOfBytes": "32",
        "value": "t_bool"
      },
      "t_mapping(t_uint256,t_struct(Event)90_storage)": {
        "encoding": "mapping",
        "key": "t_uint256",
        "label": "mapping(uint256 => struct TicketDistributor.Event)",
        "numberOfBytes": "32",
        "value": "t_struct(Event)90_storage"
      },
      "t_string_storage": {
        "encoding": "bytes",
        "label": "string",
        "numberOfBytes": "32"
      },
      "t_struct(Event)90_storage": {
        "encoding": "inplace",
        "label": "struct TicketDistributor.Event",
        "members": [
          {
            "astId": 75,
            "contract": "contracts/TicketSeller.sol:TicketDistributor",
            "label": "creator",
            "offset": 0,
            "slot": "0",
            "type": "t_address"
          },
          {
            "astId": 77,
            "contract": "contracts/TicketSeller.sol:TicketDistributor",
            "label": "name",
            "offset": 0,
            "slot": "1",
            "type": "t_string_storage"
          },
          {
            "astId": 79,
            "contract": "contracts/TicketSeller.sol:TicketDistributor",
            "label": "totalTicketAmount",
            "offset": 0,
            "slot": "2",
            "type": "t_uint256"
          },
          {
            "astId": 81,
            "contract": "contracts/TicketSeller.sol:TicketDistributor",
            "label": "ticketsSold",
            "offset": 0,
            "slot": "3",
            "type": "t_uint256"
          },
          {
            "astId": 83,
            "contract": "contracts/TicketSeller.sol:TicketDistributor",
            "label": "ticketPrice",
            "offset": 0,
            "slot": "4",
            "type": "t_uint256"
          },
          {
            "astId": 87,
            "contract": "contracts/TicketSeller.sol:TicketDistributor",
            "label": "assistants",
            "offset": 0,
            "slot": "5",
            "type": "t_mapping(t_address,t_bool)"
          },
          {
            "astId": 89,
            "contract": "contracts/TicketSeller.sol:TicketDistributor",
            "label": "active",
            "offset": 0,
            "slot": "6",
            "type": "t_bool"
          }
        ],
        "numberOfBytes": "224"
      },
      "t_uint256": {
        "encoding": "inplace",
        "label": "uint256",
        "numberOfBytes": "32"
      }
    }
  }
}