{
  "address": "0x5FbDB2315678afecb367f032d93F642f64180aa3",
  "abi": [
    {
      "inputs": [
        {
          "internalType": "uint256",
          "name": "_eventCreationFee",
          "type": "uint256"
        },
        {
          "internalType": "uint256",
          "name": "_ticketBuyingFee",
          "type": "uint256"
        }
      ],
      "stateMutability": "nonpayable",
      "type": "constructor"
    },
    {
      "inputs": [],
      "name": "AllTicketsSold",
      "type": "error"
    },
    {
      "inputs": [],
      "name": "AlreadyHaveBoughtTicket",
      "type": "error"
    },
    {
      "inputs": [],
      "name": "AmountFundedNotMatching",
      "type": "error"
    },
    {
      "inputs": [],
      "name": "EventCreationFeeNotMatching",
      "type": "error"
    },
    {
      "inputs": [],
      "name": "NonExistingEvent",
      "type": "error"
    },
    {
      "inputs": [],
      "name": "NotEventCreator",
      "type": "error"
    },
    {
      "inputs": [
        {
          "internalType": "uint256",
          "name": "_index",
          "type": "uint256"
        }
      ],
      "name": "buyTicket",
      "outputs": [],
      "stateMutability": "payable",
      "type": "function"
    },
    {
      "inputs": [
        {
          "internalType": "uint256",
          "name": "_index",
          "type": "uint256"
        },
        {
          "internalType": "address",
          "name": "_assistant",
          "type": "address"
        }
      ],
      "name": "checkAssistant",
      "outputs": [
        {
          "internalType": "bool",
          "name": "",
          "type": "bool"
        }
      ],
      "stateMutability": "view",
      "type": "function"
    },
    {
      "inputs": [
        {
          "internalType": "string",
          "name": "_name",
          "type": "string"
        },
        {
          "internalType": "uint256",
          "name": "_totalTicketAmount",
          "type": "uint256"
        },
        {
          "internalType": "uint256",
          "name": "_ticketPrice",
          "type": "uint256"
        }
      ],
      "name": "createEvent",
      "outputs": [],
      "stateMutability": "payable",
      "type": "function"
    },
    {
      "inputs": [],
      "name": "eventCreationFee",
      "outputs": [
        {
          "internalType": "uint256",
          "name": "",
          "type": "uint256"
        }
      ],
      "stateMutability": "view",
      "type": "function"
    },
    {
      "inputs": [
        {
          "internalType": "uint256",
          "name": "_index",
          "type": "uint256"
        }
      ],
      "name": "finishEvent",
      "outputs": [],
      "stateMutability": "nonpayable",
      "type": "function"
    },
    {
      "inputs": [
        {
          "internalType": "uint256",
          "name": "",
          "type": "uint256"
        }
      ],
      "name": "s_events",
      "outputs": [
        {
          "internalType": "address",
          "name": "creator",
          "type": "address"
        },
        {
          "internalType": "string",
          "name": "name",
          "type": "string"
        },
        {
          "internalType": "uint256",
          "name": "totalTicketAmount",
          "type": "uint256"
        },
        {
          "internalType": "uint256",
          "name": "ticketsSold",
          "type": "uint256"
        },
        {
          "internalType": "uint256",
          "name": "ticketPrice",
          "type": "uint256"
        },
        {
          "internalType": "bool",
          "name": "active",
          "type": "bool"
        }
      ],
      "stateMutability": "view",
      "type": "function"
    },
    {
      "inputs": [],
      "name": "ticketBuyingFee",
      "outputs": [
        {
          "internalType": "uint256",
          "name": "",
          "type": "uint256"
        }
      ],
      "stateMutability": "view",
      "type": "function"
    }
  ],
  "transactionHash": "0x2a5bdb9a4390d5fb3bf5e9a0aed5f75e5b34fb9cbd24055be8f381c38d14e79d",
  "args": [
    "1000000000000000000",
    "100000000000000000"
  ],
  "numDeployments": 1,
  "solcInputHash": "dc454e3e8acd8f83291425153f428b6a",
  "bytecode": "0x60c0604052600080553480156200001557600080fd5b50604051620010903803806200109083398181016040528101906200003b919062000093565b81608081815250508060a081815250505050620000da565b600080fd5b6000819050919050565b6200006d8162000058565b81146200007957600080fd5b50565b6000815190506200008d8162000062565b92915050565b60008060408385031215620000ad57620000ac62000053565b5b6000620000bd858286016200007c565b9250506020620000d0858286016200007c565b9150509250929050565b60805160a051610f826200010e6000396000818161031b015261062501526000818161041801526105090152610f826000f3fe6080604052600436106100705760003560e01c80639e9580f61161004e5780639e9580f6146100e55780639fb541f214610101578063d11abbe61461012c578063f4b0ec951461016957610070565b806367dd74ca146100755780638ff6212914610091578063982fb7b8146100bc575b600080fd5b61008f600480360381019061008a91906107ed565b6101ab565b005b34801561009d57600080fd5b506100a6610416565b6040516100b39190610829565b60405180910390f35b3480156100c857600080fd5b506100e360048036038101906100de91906107ed565b61043a565b005b6100ff60048036038101906100fa919061098a565b610507565b005b34801561010d57600080fd5b50610116610623565b6040516101239190610829565b60405180910390f35b34801561013857600080fd5b50610153600480360381019061014e9190610a57565b610647565b6040516101609190610ab2565b60405180910390f35b34801561017557600080fd5b50610190600480360381019061018b91906107ed565b6106b2565b6040516101a296959493929190610b5b565b60405180910390f35b6001600082815260200190815260200160002060060160009054906101000a900460ff16610205576040517f077655f700000000000000000000000000000000000000000000000000000000815260040160405180910390fd5b6001600082815260200190815260200160002060050160003373ffffffffffffffffffffffffffffffffffffffff1673ffffffffffffffffffffffffffffffffffffffff16815260200190815260200160002060009054906101000a900460ff161561029d576040517fe8b6309400000000000000000000000000000000000000000000000000000000815260040160405180910390fd5b6001600082815260200190815260200160002060030154600160008381526020019081526020016000206002015411610302576040517fe48e5abe00000000000000000000000000000000000000000000000000000000815260040160405180910390fd5b60016000828152602001908152602001600020600401547f00000000000000000000000000000000000000000000000000000000000000006103449190610bf2565b341461037c576040517f3b0c5b0900000000000000000000000000000000000000000000000000000000815260040160405180910390fd5b6001600082815260200190815260200160002060030160008154809291906103a390610c26565b9190505550600180600083815260200190815260200160002060050160003373ffffffffffffffffffffffffffffffffffffffff1673ffffffffffffffffffffffffffffffffffffffff16815260200190815260200160002060006101000a81548160ff02191690831515021790555050565b7f000000000000000000000000000000000000000000000000000000000000000081565b3373ffffffffffffffffffffffffffffffffffffffff166001600083815260200190815260200160002060000160009054906101000a900473ffffffffffffffffffffffffffffffffffffffff1673ffffffffffffffffffffffffffffffffffffffff16146104d5576040517f779dbe6500000000000000000000000000000000000000000000000000000000815260040160405180910390fd5b60006001600083815260200190815260200160002060060160006101000a81548160ff02191690831515021790555050565b7f00000000000000000000000000000000000000000000000000000000000000003414610560576040517fc341904200000000000000000000000000000000000000000000000000000000815260040160405180910390fd5b60006001600080548152602001908152602001600020905060008081548092919061058a90610c26565b9190505550338160000160006101000a81548173ffffffffffffffffffffffffffffffffffffffff021916908373ffffffffffffffffffffffffffffffffffffffff160217905550838160010190816105e39190610e7a565b508281600201819055506000816003018190555081816004018190555060018160060160006101000a81548160ff02191690831515021790555050505050565b7f000000000000000000000000000000000000000000000000000000000000000081565b60006001600084815260200190815260200160002060050160008373ffffffffffffffffffffffffffffffffffffffff1673ffffffffffffffffffffffffffffffffffffffff16815260200190815260200160002060009054906101000a900460ff16905092915050565b60016020528060005260406000206000915090508060000160009054906101000a900473ffffffffffffffffffffffffffffffffffffffff16908060010180546106fb90610c9d565b80601f016020809104026020016040519081016040528092919081815260200182805461072790610c9d565b80156107745780601f1061074957610100808354040283529160200191610774565b820191906000526020600020905b81548152906001019060200180831161075757829003601f168201915b5050505050908060020154908060030154908060040154908060060160009054906101000a900460ff16905086565b6000604051905090565b600080fd5b600080fd5b6000819050919050565b6107ca816107b7565b81146107d557600080fd5b50565b6000813590506107e7816107c1565b92915050565b600060208284031215610803576108026107ad565b5b6000610811848285016107d8565b91505092915050565b610823816107b7565b82525050565b600060208201905061083e600083018461081a565b92915050565b600080fd5b600080fd5b6000601f19601f8301169050919050565b7f4e487b7100000000000000000000000000000000000000000000000000000000600052604160045260246000fd5b6108978261084e565b810181811067ffffffffffffffff821117156108b6576108b561085f565b5b80604052505050565b60006108c96107a3565b90506108d5828261088e565b919050565b600067ffffffffffffffff8211156108f5576108f461085f565b5b6108fe8261084e565b9050602081019050919050565b82818337600083830152505050565b600061092d610928846108da565b6108bf565b90508281526020810184848401111561094957610948610849565b5b61095484828561090b565b509392505050565b600082601f83011261097157610970610844565b5b813561098184826020860161091a565b91505092915050565b6000806000606084860312156109a3576109a26107ad565b5b600084013567ffffffffffffffff8111156109c1576109c06107b2565b5b6109cd8682870161095c565b93505060206109de868287016107d8565b92505060406109ef868287016107d8565b9150509250925092565b600073ffffffffffffffffffffffffffffffffffffffff82169050919050565b6000610a24826109f9565b9050919050565b610a3481610a19565b8114610a3f57600080fd5b50565b600081359050610a5181610a2b565b92915050565b60008060408385031215610a6e57610a6d6107ad565b5b6000610a7c858286016107d8565b9250506020610a8d85828601610a42565b9150509250929050565b60008115159050919050565b610aac81610a97565b82525050565b6000602082019050610ac76000830184610aa3565b92915050565b610ad681610a19565b82525050565b600081519050919050565b600082825260208201905092915050565b60005b83811015610b16578082015181840152602081019050610afb565b60008484015250505050565b6000610b2d82610adc565b610b378185610ae7565b9350610b47818560208601610af8565b610b508161084e565b840191505092915050565b600060c082019050610b706000830189610acd565b8181036020830152610b828188610b22565b9050610b91604083018761081a565b610b9e606083018661081a565b610bab608083018561081a565b610bb860a0830184610aa3565b979650505050505050565b7f4e487b7100000000000000000000000000000000000000000000000000000000600052601160045260246000fd5b6000610bfd826107b7565b9150610c08836107b7565b9250828201905080821115610c2057610c1f610bc3565b5b92915050565b6000610c31826107b7565b91507fffffffffffffffffffffffffffffffffffffffffffffffffffffffffffffffff8203610c6357610c62610bc3565b5b600182019050919050565b7f4e487b7100000000000000000000000000000000000000000000000000000000600052602260045260246000fd5b60006002820490506001821680610cb557607f821691505b602082108103610cc857610cc7610c6e565b5b50919050565b60008190508160005260206000209050919050565b60006020601f8301049050919050565b600082821b905092915050565b600060088302610d307fffffffffffffffffffffffffffffffffffffffffffffffffffffffffffffffff82610cf3565b610d3a8683610cf3565b95508019841693508086168417925050509392505050565b6000819050919050565b6000610d77610d72610d6d846107b7565b610d52565b6107b7565b9050919050565b6000819050919050565b610d9183610d5c565b610da5610d9d82610d7e565b848454610d00565b825550505050565b600090565b610dba610dad565b610dc5818484610d88565b505050565b5b81811015610de957610dde600082610db2565b600181019050610dcb565b5050565b601f821115610e2e57610dff81610cce565b610e0884610ce3565b81016020851015610e17578190505b610e2b610e2385610ce3565b830182610dca565b50505b505050565b600082821c905092915050565b6000610e5160001984600802610e33565b1980831691505092915050565b6000610e6a8383610e40565b9150826002028217905092915050565b610e8382610adc565b67ffffffffffffffff811115610e9c57610e9b61085f565b5b610ea68254610c9d565b610eb1828285610ded565b600060209050601f831160018114610ee45760008415610ed2578287015190505b610edc8582610e5e565b865550610f44565b601f198416610ef286610cce565b60005b82811015610f1a57848901518255600182019150602085019450602081019050610ef5565b86831015610f375784890151610f33601f891682610e40565b8355505b6001600288020188555050505b50505050505056fea264697066735822122039683cf0c1ef5f0013faf31f39a49f7c7578a23e6c6a87d04995cb6c48c2937864736f6c63430008120033",
  "devdoc": {
    "kind": "dev",
    "methods": {},
    "version": 1
  },
  "userdoc": {
    "kind": "user",
    "methods": {},
    "version": 1
  },
  "storageLayout": {
    "storage": [
      {
        "astId": 20,
        "contract": "contracts/TicketSeller.sol:TicketDistributor",
        "label": "s_index",
        "offset": 0,
        "slot": "0",
        "type": "t_uint256"
      },
      {
        "astId": 25,
        "contract": "contracts/TicketSeller.sol:TicketDistributor",
        "label": "s_events",
        "offset": 0,
        "slot": "1",
        "type": "t_mapping(t_uint256,t_struct(Event)42_storage)"
      }
    ],
    "types": {
      "t_address": {
        "encoding": "inplace",
        "label": "address",
        "numberOfBytes": "20"
      },
      "t_bool": {
        "encoding": "inplace",
        "label": "bool",
        "numberOfBytes": "1"
      },
      "t_mapping(t_address,t_bool)": {
        "encoding": "mapping",
        "key": "t_address",
        "label": "mapping(address => bool)",
        "numberOfBytes": "32",
        "value": "t_bool"
      },
      "t_mapping(t_uint256,t_struct(Event)42_storage)": {
        "encoding": "mapping",
        "key": "t_uint256",
        "label": "mapping(uint256 => struct TicketDistributor.Event)",
        "numberOfBytes": "32",
        "value": "t_struct(Event)42_storage"
      },
      "t_string_storage": {
        "encoding": "bytes",
        "label": "string",
        "numberOfBytes": "32"
      },
      "t_struct(Event)42_storage": {
        "encoding": "inplace",
        "label": "struct TicketDistributor.Event",
        "members": [
          {
            "astId": 27,
            "contract": "contracts/TicketSeller.sol:TicketDistributor",
            "label": "creator",
            "offset": 0,
            "slot": "0",
            "type": "t_address"
          },
          {
            "astId": 29,
            "contract": "contracts/TicketSeller.sol:TicketDistributor",
            "label": "name",
            "offset": 0,
            "slot": "1",
            "type": "t_string_storage"
          },
          {
            "astId": 31,
            "contract": "contracts/TicketSeller.sol:TicketDistributor",
            "label": "totalTicketAmount",
            "offset": 0,
            "slot": "2",
            "type": "t_uint256"
          },
          {
            "astId": 33,
            "contract": "contracts/TicketSeller.sol:TicketDistributor",
            "label": "ticketsSold",
            "offset": 0,
            "slot": "3",
            "type": "t_uint256"
          },
          {
            "astId": 35,
            "contract": "contracts/TicketSeller.sol:TicketDistributor",
            "label": "ticketPrice",
            "offset": 0,
            "slot": "4",
            "type": "t_uint256"
          },
          {
            "astId": 39,
            "contract": "contracts/TicketSeller.sol:TicketDistributor",
            "label": "assistants",
            "offset": 0,
            "slot": "5",
            "type": "t_mapping(t_address,t_bool)"
          },
          {
            "astId": 41,
            "contract": "contracts/TicketSeller.sol:TicketDistributor",
            "label": "active",
            "offset": 0,
            "slot": "6",
            "type": "t_bool"
          }
        ],
        "numberOfBytes": "224"
      },
      "t_uint256": {
        "encoding": "inplace",
        "label": "uint256",
        "numberOfBytes": "32"
      }
    }
  }
}