{
  "address": "0xB9fba6dFF1D2f045b2A7eA5ed6a5b5c0d1C5AD9B",
  "abi": [
    {
      "inputs": [
        {
          "internalType": "uint256",
          "name": "_eventCreationFee",
          "type": "uint256"
        },
        {
          "internalType": "uint256",
          "name": "_ticketBuyingFee",
          "type": "uint256"
        }
      ],
      "stateMutability": "nonpayable",
      "type": "constructor"
    },
    {
      "inputs": [],
      "name": "AllTicketsSold",
      "type": "error"
    },
    {
      "inputs": [],
      "name": "AlreadyHaveBoughtTicket",
      "type": "error"
    },
    {
      "inputs": [],
      "name": "AmountFundedNotMatching",
      "type": "error"
    },
    {
      "inputs": [],
      "name": "EventCreationFeeNotMatching",
      "type": "error"
    },
    {
      "inputs": [],
      "name": "NonExistingEvent",
      "type": "error"
    },
    {
      "inputs": [
        {
          "internalType": "uint256",
          "name": "_index",
          "type": "uint256"
        }
      ],
      "name": "buyTicket",
      "outputs": [],
      "stateMutability": "payable",
      "type": "function"
    },
    {
      "inputs": [
        {
          "internalType": "uint256",
          "name": "_index",
          "type": "uint256"
        },
        {
          "internalType": "address",
          "name": "_assistant",
          "type": "address"
        }
      ],
      "name": "checkAssistant",
      "outputs": [
        {
          "internalType": "bool",
          "name": "",
          "type": "bool"
        }
      ],
      "stateMutability": "view",
      "type": "function"
    },
    {
      "inputs": [
        {
          "internalType": "string",
          "name": "_name",
          "type": "string"
        },
        {
          "internalType": "uint256",
          "name": "_totalTicketAmount",
          "type": "uint256"
        },
        {
          "internalType": "uint256",
          "name": "_ticketPrice",
          "type": "uint256"
        }
      ],
      "name": "createEvent",
      "outputs": [],
      "stateMutability": "payable",
      "type": "function"
    },
    {
      "inputs": [],
      "name": "eventCreationFee",
      "outputs": [
        {
          "internalType": "uint256",
          "name": "",
          "type": "uint256"
        }
      ],
      "stateMutability": "view",
      "type": "function"
    },
    {
      "inputs": [
        {
          "internalType": "uint256",
          "name": "",
          "type": "uint256"
        }
      ],
      "name": "s_events",
      "outputs": [
        {
          "internalType": "address",
          "name": "creator",
          "type": "address"
        },
        {
          "internalType": "string",
          "name": "name",
          "type": "string"
        },
        {
          "internalType": "uint256",
          "name": "totalTicketAmount",
          "type": "uint256"
        },
        {
          "internalType": "uint256",
          "name": "ticketsSold",
          "type": "uint256"
        },
        {
          "internalType": "uint256",
          "name": "ticketPrice",
          "type": "uint256"
        },
        {
          "internalType": "bool",
          "name": "active",
          "type": "bool"
        }
      ],
      "stateMutability": "view",
      "type": "function"
    },
    {
      "inputs": [],
      "name": "ticketBuyingFee",
      "outputs": [
        {
          "internalType": "uint256",
          "name": "",
          "type": "uint256"
        }
      ],
      "stateMutability": "view",
      "type": "function"
    }
  ],
  "transactionHash": "0xce305212bc4e1749fa9a44941c499d9953b5ea4e4487508c20261ac535a6d0fd",
  "args": [
    "1000000000000000",
    "100000000000000"
  ],
  "numDeployments": 1,
  "solcInputHash": "ba938149434d8b25bc68b2e020ae110e",
  "bytecode": "0x60c06040526000805534801561001457600080fd5b5060405162000f6f38038062000f6f8339818101604052810190610038919061008a565b81608081815250508060a0818152505050506100ca565b600080fd5b6000819050919050565b61006781610054565b811461007257600080fd5b50565b6000815190506100848161005e565b92915050565b600080604083850312156100a1576100a061004f565b5b60006100af85828601610075565b92505060206100c085828601610075565b9150509250929050565b60805160a051610e71620000fe600039600081816102d701526105140152600081816103d401526103f80152610e716000f3fe6080604052600436106100555760003560e01c806367dd74ca1461005a5780638ff62129146100765780639e9580f6146100a15780639fb541f2146100bd578063d11abbe6146100e8578063f4b0ec9514610125575b600080fd5b610074600480360381019061006f91906106dc565b610167565b005b34801561008257600080fd5b5061008b6103d2565b6040516100989190610718565b60405180910390f35b6100bb60048036038101906100b69190610879565b6103f6565b005b3480156100c957600080fd5b506100d2610512565b6040516100df9190610718565b60405180910390f35b3480156100f457600080fd5b5061010f600480360381019061010a9190610946565b610536565b60405161011c91906109a1565b60405180910390f35b34801561013157600080fd5b5061014c600480360381019061014791906106dc565b6105a1565b60405161015e96959493929190610a4a565b60405180910390f35b6001600082815260200190815260200160002060060160009054906101000a900460ff166101c1576040517f077655f700000000000000000000000000000000000000000000000000000000815260040160405180910390fd5b6001600082815260200190815260200160002060050160003373ffffffffffffffffffffffffffffffffffffffff1673ffffffffffffffffffffffffffffffffffffffff16815260200190815260200160002060009054906101000a900460ff1615610259576040517fe8b6309400000000000000000000000000000000000000000000000000000000815260040160405180910390fd5b60016000828152602001908152602001600020600301546001600083815260200190815260200160002060020154116102be576040517fe48e5abe00000000000000000000000000000000000000000000000000000000815260040160405180910390fd5b60016000828152602001908152602001600020600401547f00000000000000000000000000000000000000000000000000000000000000006103009190610ae1565b3414610338576040517f3b0c5b0900000000000000000000000000000000000000000000000000000000815260040160405180910390fd5b60016000828152602001908152602001600020600301600081548092919061035f90610b15565b9190505550600180600083815260200190815260200160002060050160003373ffffffffffffffffffffffffffffffffffffffff1673ffffffffffffffffffffffffffffffffffffffff16815260200190815260200160002060006101000a81548160ff02191690831515021790555050565b7f000000000000000000000000000000000000000000000000000000000000000081565b7f0000000000000000000000000000000000000000000000000000000000000000341461044f576040517fc341904200000000000000000000000000000000000000000000000000000000815260040160405180910390fd5b60006001600080548152602001908152602001600020905060008081548092919061047990610b15565b9190505550338160000160006101000a81548173ffffffffffffffffffffffffffffffffffffffff021916908373ffffffffffffffffffffffffffffffffffffffff160217905550838160010190816104d29190610d69565b508281600201819055506000816003018190555081816004018190555060018160060160006101000a81548160ff02191690831515021790555050505050565b7f000000000000000000000000000000000000000000000000000000000000000081565b60006001600084815260200190815260200160002060050160008373ffffffffffffffffffffffffffffffffffffffff1673ffffffffffffffffffffffffffffffffffffffff16815260200190815260200160002060009054906101000a900460ff16905092915050565b60016020528060005260406000206000915090508060000160009054906101000a900473ffffffffffffffffffffffffffffffffffffffff16908060010180546105ea90610b8c565b80601f016020809104026020016040519081016040528092919081815260200182805461061690610b8c565b80156106635780601f1061063857610100808354040283529160200191610663565b820191906000526020600020905b81548152906001019060200180831161064657829003601f168201915b5050505050908060020154908060030154908060040154908060060160009054906101000a900460ff16905086565b6000604051905090565b600080fd5b600080fd5b6000819050919050565b6106b9816106a6565b81146106c457600080fd5b50565b6000813590506106d6816106b0565b92915050565b6000602082840312156106f2576106f161069c565b5b6000610700848285016106c7565b91505092915050565b610712816106a6565b82525050565b600060208201905061072d6000830184610709565b92915050565b600080fd5b600080fd5b6000601f19601f8301169050919050565b7f4e487b7100000000000000000000000000000000000000000000000000000000600052604160045260246000fd5b6107868261073d565b810181811067ffffffffffffffff821117156107a5576107a461074e565b5b80604052505050565b60006107b8610692565b90506107c4828261077d565b919050565b600067ffffffffffffffff8211156107e4576107e361074e565b5b6107ed8261073d565b9050602081019050919050565b82818337600083830152505050565b600061081c610817846107c9565b6107ae565b90508281526020810184848401111561083857610837610738565b5b6108438482856107fa565b509392505050565b600082601f8301126108605761085f610733565b5b8135610870848260208601610809565b91505092915050565b6000806000606084860312156108925761089161069c565b5b600084013567ffffffffffffffff8111156108b0576108af6106a1565b5b6108bc8682870161084b565b93505060206108cd868287016106c7565b92505060406108de868287016106c7565b9150509250925092565b600073ffffffffffffffffffffffffffffffffffffffff82169050919050565b6000610913826108e8565b9050919050565b61092381610908565b811461092e57600080fd5b50565b6000813590506109408161091a565b92915050565b6000806040838503121561095d5761095c61069c565b5b600061096b858286016106c7565b925050602061097c85828601610931565b9150509250929050565b60008115159050919050565b61099b81610986565b82525050565b60006020820190506109b66000830184610992565b92915050565b6109c581610908565b82525050565b600081519050919050565b600082825260208201905092915050565b60005b83811015610a055780820151818401526020810190506109ea565b60008484015250505050565b6000610a1c826109cb565b610a2681856109d6565b9350610a368185602086016109e7565b610a3f8161073d565b840191505092915050565b600060c082019050610a5f60008301896109bc565b8181036020830152610a718188610a11565b9050610a806040830187610709565b610a8d6060830186610709565b610a9a6080830185610709565b610aa760a0830184610992565b979650505050505050565b7f4e487b7100000000000000000000000000000000000000000000000000000000600052601160045260246000fd5b6000610aec826106a6565b9150610af7836106a6565b9250828201905080821115610b0f57610b0e610ab2565b5b92915050565b6000610b20826106a6565b91507fffffffffffffffffffffffffffffffffffffffffffffffffffffffffffffffff8203610b5257610b51610ab2565b5b600182019050919050565b7f4e487b7100000000000000000000000000000000000000000000000000000000600052602260045260246000fd5b60006002820490506001821680610ba457607f821691505b602082108103610bb757610bb6610b5d565b5b50919050565b60008190508160005260206000209050919050565b60006020601f8301049050919050565b600082821b905092915050565b600060088302610c1f7fffffffffffffffffffffffffffffffffffffffffffffffffffffffffffffffff82610be2565b610c298683610be2565b95508019841693508086168417925050509392505050565b6000819050919050565b6000610c66610c61610c5c846106a6565b610c41565b6106a6565b9050919050565b6000819050919050565b610c8083610c4b565b610c94610c8c82610c6d565b848454610bef565b825550505050565b600090565b610ca9610c9c565b610cb4818484610c77565b505050565b5b81811015610cd857610ccd600082610ca1565b600181019050610cba565b5050565b601f821115610d1d57610cee81610bbd565b610cf784610bd2565b81016020851015610d06578190505b610d1a610d1285610bd2565b830182610cb9565b50505b505050565b600082821c905092915050565b6000610d4060001984600802610d22565b1980831691505092915050565b6000610d598383610d2f565b9150826002028217905092915050565b610d72826109cb565b67ffffffffffffffff811115610d8b57610d8a61074e565b5b610d958254610b8c565b610da0828285610cdc565b600060209050601f831160018114610dd35760008415610dc1578287015190505b610dcb8582610d4d565b865550610e33565b601f198416610de186610bbd565b60005b82811015610e0957848901518255600182019150602085019450602081019050610de4565b86831015610e265784890151610e22601f891682610d2f565b8355505b6001600288020188555050505b50505050505056fea2646970667358221220b437428d3edc7cbc96ca878b61d0cc29d5fd9c544373416034e7d48c88141e4a64736f6c63430008120033",
  "devdoc": {
    "kind": "dev",
    "methods": {},
    "version": 1
  },
  "userdoc": {
    "kind": "user",
    "methods": {},
    "version": 1
  },
  "storageLayout": {
    "storage": [
      {
        "astId": 18,
        "contract": "contracts/TicketSeller.sol:TicketDistributor",
        "label": "s_index",
        "offset": 0,
        "slot": "0",
        "type": "t_uint256"
      },
      {
        "astId": 23,
        "contract": "contracts/TicketSeller.sol:TicketDistributor",
        "label": "s_events",
        "offset": 0,
        "slot": "1",
        "type": "t_mapping(t_uint256,t_struct(Event)40_storage)"
      }
    ],
    "types": {
      "t_address": {
        "encoding": "inplace",
        "label": "address",
        "numberOfBytes": "20"
      },
      "t_bool": {
        "encoding": "inplace",
        "label": "bool",
        "numberOfBytes": "1"
      },
      "t_mapping(t_address,t_bool)": {
        "encoding": "mapping",
        "key": "t_address",
        "label": "mapping(address => bool)",
        "numberOfBytes": "32",
        "value": "t_bool"
      },
      "t_mapping(t_uint256,t_struct(Event)40_storage)": {
        "encoding": "mapping",
        "key": "t_uint256",
        "label": "mapping(uint256 => struct TicketDistributor.Event)",
        "numberOfBytes": "32",
        "value": "t_struct(Event)40_storage"
      },
      "t_string_storage": {
        "encoding": "bytes",
        "label": "string",
        "numberOfBytes": "32"
      },
      "t_struct(Event)40_storage": {
        "encoding": "inplace",
        "label": "struct TicketDistributor.Event",
        "members": [
          {
            "astId": 25,
            "contract": "contracts/TicketSeller.sol:TicketDistributor",
            "label": "creator",
            "offset": 0,
            "slot": "0",
            "type": "t_address"
          },
          {
            "astId": 27,
            "contract": "contracts/TicketSeller.sol:TicketDistributor",
            "label": "name",
            "offset": 0,
            "slot": "1",
            "type": "t_string_storage"
          },
          {
            "astId": 29,
            "contract": "contracts/TicketSeller.sol:TicketDistributor",
            "label": "totalTicketAmount",
            "offset": 0,
            "slot": "2",
            "type": "t_uint256"
          },
          {
            "astId": 31,
            "contract": "contracts/TicketSeller.sol:TicketDistributor",
            "label": "ticketsSold",
            "offset": 0,
            "slot": "3",
            "type": "t_uint256"
          },
          {
            "astId": 33,
            "contract": "contracts/TicketSeller.sol:TicketDistributor",
            "label": "ticketPrice",
            "offset": 0,
            "slot": "4",
            "type": "t_uint256"
          },
          {
            "astId": 37,
            "contract": "contracts/TicketSeller.sol:TicketDistributor",
            "label": "assistants",
            "offset": 0,
            "slot": "5",
            "type": "t_mapping(t_address,t_bool)"
          },
          {
            "astId": 39,
            "contract": "contracts/TicketSeller.sol:TicketDistributor",
            "label": "active",
            "offset": 0,
            "slot": "6",
            "type": "t_bool"
          }
        ],
        "numberOfBytes": "224"
      },
      "t_uint256": {
        "encoding": "inplace",
        "label": "uint256",
        "numberOfBytes": "32"
      }
    }
  }
}